:100000000C945C000C946E000C946E000C946E00CA
:100010000C946E000C946E000C946E000C946E00A8
:100020000C946E000C946E000C946E000C946E0098
:100030000C946E000C946E000C946E000C946E0088
:100040000C94FE000C946E000C946E000C946E00E8
:100050000C946E000C946E000C946E000C946E0068
:100060000C946E000C946E00000000080002010069
:100070000003040700000000000000000000000072
:10008000250028002B0000000000240027002A0083
:10009000040404040404040402020202020203032E
:1000A0000303030301020408102040800102040836
:1000B000102001020408102011241FBECFEFD8E049
:1000C000DEBFCDBF21E0A0E0B1E001C01D92AA30AB
:1000D000B207E1F70E9448010C9437020C9400002B
:1000E00090E0FC01EC55FF4F2491FC01E057FF4FDD
:1000F0008491882399F090E0880F991FFC01EA57BA
:10010000FF4FA591B491FC01E458FF4F8591949164
:100110008FB7F894EC91E22BEC938FBF0895E2E750
:10012000F0E02491EEEAF0E09491EAE9F0E0E49165
:10013000EE2309F43BC0222339F1233091F038F447
:100140002130A9F0223001F524B52F7D12C02730CF
:1001500091F02830A1F02430B9F4209180002F7D57
:1001600003C0209180002F77209380000DC024B51C
:100170002F7724BD09C02091B0002F7703C02091B4
:10018000B0002F7D2093B000F0E0EE0FFF1FE45889
:10019000FF4FA591B4912FB7F894EC91811103C052
:1001A00090959E2301C09E2B9C932FBF08951F9373
:1001B000CF93DF931F92CDB7DEB726E0880F991F4C
:1001C0002A95E1F780617F70182F172B80E06983F3
:1001D0000E948F001EBD000069810DB407FEFDCF97
:1001E0008EB56EBD00000DB407FEFDCF8EB581E06B
:1001F0000F90DF91CF911F910C948F001F920F925F
:100200000FB60F9211242F933F938F939F93AF9329
:10021000BF938091050190910601A0910701B091D3
:1002200008013091040123E0230F2D3720F40196BB
:10023000A11DB11D05C026E8230F0296A11DB11D09
:10024000209304018093050190930601A093070178
:10025000B09308018091000190910101A0910201E9
:10026000B09103010196A11DB11D809300019093EF
:100270000101A0930201B0930301BF91AF919F913F
:100280008F913F912F910F900FBE0F901F90189557
:10029000789484B5826084BD84B5816084BD85B561
:1002A000826085BD85B5816085BD80916E0081606D
:1002B00080936E0010928100809181008260809313
:1002C0008100809181008160809381008091800015
:1002D0008160809380008091B10084608093B10040
:1002E0008091B00081608093B00080917A0084603A
:1002F00080937A0080917A00826080937A00809166
:100300007A00816080937A0080917A00806880937F
:100310007A001092C1008AE00E94700081E00E9481
:100320008F00CFB7F89480910901811123C0EAE9C9
:10033000F0E08491EEEAF0E09491E82FF0E0EE0F27
:10034000FF1FEA57FF4FA591B491EC91E92319F4EF
:1003500081E00E948F008AE00E9470008CB580616D
:100360008CBD8CB580648CBD8DE00E9470008BE0EC
:100370000E947000809109018F5F80930901CFBFB7
:10038000CBE3DDE000E010E06FEF7FE080E090E0A5
:100390000E94D7006FEF7FE081E090E00E94D700DD
:1003A0006FEF7FE082E090E00E94D7006FEF7FE088
:1003B00083E090E00E94D700CE010197F1F76FEF44
:1003C00077E080E090E00E94D7006FEF77E081E077
:1003D00090E00E94D7006FEF77E082E090E00E940B
:1003E000D7006FEF77E083E090E00E94D700CE0166
:1003F0000197F1F760E070E080E090E00E94D700A4
:1004000060E070E081E090E00E94D70060E070E082
:1004100082E090E00E94D70060E070E083E090E02E
:100420000E94D700CE010197F1F76FEF77E080E0EF
:1004300090E00E94D7006FEF77E081E090E00E94AB
:10044000D7006FEF77E082E090E00E94D7006FEF77
:1004500077E083E090E00E94D700CE010197F1F7AA
:100460000115110509F490CF0E9400008DCFF8947A
:02047000FFCFBC
:00000001FF
