:100000000C945D000C9485000C9485000C94850084
:100010000C9485000C9485000C9485000C9485004C
:100020000C9485000C9485000C9485000C9485003C
:100030000C9485000C9485000C9485000C9485002C
:100040000C94ED020C9485000C94BB020C94950268
:100050000C9485000C9485000C9485000C9485000C
:100060000C9485000C94850000000008000201003B
:100070000003040700000000000000000000000072
:10008000250028002B0000000000240027002A0083
:10009000040404040404040402020202020203032E
:1000A0000303030301020408102040800102040836
:1000B0001020010204081020F80311241FBECFEF06
:1000C000D8E0DEBFCDBF11E0A0E0B1E0E8EAF8E0A3
:1000D00002C005900D92A032B107D9F721E0A0E24D
:1000E000B1E001C01D92AB3CB207E1F710E0CDE5F5
:1000F000D0E004C02197FE010E944704CC35D1070F
:10010000C9F70E9437030C9452040C94000090E04D
:10011000FC01EC55FF4F2491FC01E057FF4F849107
:10012000882399F090E0880F991FFC01EA57FF4F50
:10013000A591B491FC01E458FF4F859194918FB73C
:10014000F894EC91E22BEC938FBF0895E2E7F0E096
:100150002491EEEAF0E09491EAE9F0E0E491EE23F4
:1001600009F43BC0222339F1233091F038F42130D7
:10017000A9F0223001F524B52F7D12C0273091F06F
:100180002830A1F02430B9F4209180002F7D03C0E5
:10019000209180002F77209380000DC024B52F7709
:1001A00024BD09C02091B0002F7703C02091B0007A
:1001B0002F7D2093B000F0E0EE0FFF1FE458FF4FBB
:1001C000A591B4912FB7F894EC91811103C090954B
:1001D0009E2301C09E2B9C932FBF0895CF93DF9346
:1001E000D82F9F70C92FC06180E00E94A600CEBDAD
:1001F00000000DB407FEFDCF8EB5DEBD00000DB4CE
:1002000007FEFDCF8EB581E0DF91CF910C94A60063
:10021000FC01918D828D981761F0828DDF01A80F0E
:10022000B11D5D968C91928D9F5F9F73928F90E030
:1002300008958FEF9FEF0895FC01918D828D98179F
:1002400031F0828DE80FF11D858D90E008958FEFDC
:100250009FEF0895FC01918D228D892F90E0805CA5
:100260009F4F821B91098F7399270895FC01848DFC
:10027000DF01A80FB11DA35ABF4F2C91848D90E0D0
:1002800001968F739927848FA689B7892C93A089AB
:10029000B1898C9180648C93938D848D981306C062
:1002A0000288F389E02D80818F7D80830895EF920D
:1002B000FF920F931F93CF93DF93EC0181E0888F20
:1002C0009B8D8C8D981305C0E889F989808185FD07
:1002D00024C0F62E0B8D10E00F5F1F4F0F731127F8
:1002E000E02E8C8DE8120CC00FB607FCFACFE8891F
:1002F000F989808185FFF5CFCE010E943601F1CFCB
:100300008B8DFE01E80FF11DE35AFF4FF0820B8F3A
:10031000EA89FB898081806207C0EE89FF8960835A
:10032000E889F98980818064808381E090E0DF91B1
:10033000CF911F910F91FF90EF900895CF93DF938E
:10034000EC01888D8823C9F0EA89FB89808185FDCD
:1003500005C0A889B9898C9186FD0FC00FB607FC2E
:10036000F5CF808185FFF2CFA889B9898C9185FF6F
:10037000EDCFCE010E943601E7CFDF91CF910895F6
:100380008EE291E00E942A0121E0892B09F420E00D
:10039000822F089580E090E0892B29F00E94C0010F
:1003A00081110C9400000895CF92DF92EF92FF929A
:1003B0000F931F93CF93DF936C017A018B01C0E001
:1003C000D0E0CE15DF0589F0D8016D918D01D60101
:1003D000ED91FC910190F081E02DC6010995892BEA
:1003E00011F47E0102C02196ECCFC701DF91CF91BD
:1003F0001F910F91FF90EF90DF90CF90089500979D
:1004000069F0FC0101900020E9F73197AF01481B2A
:10041000590BBC018EE291E00C94D40180E090E095
:1004200008958F929F92AF92BF92CF92DF92EF92F8
:10043000FF920F931F93CF93DF93CDB7DEB7A197B2
:100440000FB6F894DEBF0FBECDBF6C01990FEE085A
:10045000FF08F7FE31C0E0912E01F0912F010190CD
:10046000F081E02D6DE28EE291E009958C0122276A
:100470003327A9012C193D094E095F0919A2CE01A4
:1004800081967C019AE0892E912CA12CB12CCA0175
:10049000B901A50194010E942504605DF7016293F2
:1004A0007F01211531054105510589F7CF010E94D2
:1004B000FF01080F191F1EC0A701960119A28E0186
:1004C0000F5D1F4F8AE0C82ED12CE12CF12CCA0100
:1004D000B901A70196010E942504605DF8016293AD
:1004E0008F01211531054105510589F7CF010E9482
:1004F000FF018C0180E191E00E94FF01800F911FBC
:10050000A1960FB6F894DEBF0FBECDBFDF91CF919D
:100510001F910F91FF90EF90DF90CF90BF90AF9021
:100520009F908F9008950E944D041F920F920FB6D6
:100530000F9211242F933F934F935F936F937F9369
:100540008F939F93AF93BF93EF93FF938EE291E0CE
:100550000E943601FF91EF91BF91AF919F918F91D2
:100560007F916F915F914F913F912F910F900FBEAF
:100570000F901F9018951F920F920FB60F92112493
:100580002F938F939F93EF93FF93E0913E01F09110
:100590003F018081E0914401F091450182FD12C04C
:1005A0009081809147018F5F8F732091480182175E
:1005B00051F0E0914701F0E0E25DFE4F958F8093AE
:1005C000470101C08081FF91EF919F918F912F9101
:1005D0000F900FBE0F901F9018951F920F920FB69D
:1005E0000F9211242F933F938F939F93AF93BF93B9
:1005F0008091250190912601A0912701B0912801B9
:100600003091240123E0230F2D3720F40196A11D02
:10061000B11D05C026E8230F0296A11DB11D209330
:1006200024018093250190932601A0932701B09384
:1006300028018091200190912101A0912201B09187
:1006400023010196A11DB11D8093200190932101EA
:10065000A0932201B0932301BF91AF919F918F91FD
:100660003F912F910F900FBE0F901F901895789487
:1006700084B5826084BD84B5816084BD85B58260A7
:1006800085BD85B5816085BD80916E008160809358
:100690006E001092810080918100826080938100C1
:1006A00080918100816080938100809180008160D1
:1006B000809380008091B10084608093B10080912C
:1006C000B00081608093B00080917A008460809354
:1006D0007A0080917A00826080937A0080917A001B
:1006E000816080937A0080917A00806880937A009C
:1006F0001092C1008AE00E94870081E00E94A6005B
:10070000CFB7F89480912901811123C0EAE9F0E084
:100710008491EEEAF0E09491E82FF0E0EE0FFF1FF5
:10072000EA57FF4FA591B491EC91E92319F481E0C8
:100730000E94A6008AE00E9487008CB580618CBD73
:100740008CB580648CBD8DE00E9487008BE00E9498
:100750008700809129018F5F80932901CFBF8AE7AD
:1007600090E090932B0180932A0184E190E0909394
:100770002D0180932C0183E191E00E94FF01809183
:100780002A0190912B010E9411020BEC17E08BE5DE
:10079000E82E85E2F82EC0912C01D0912D01C15098
:1007A000D84FC0902A01D0902B01CE018C0D9D1DF9
:1007B0000E94EE00C8010197F1F7CE018C199D0946
:1007C0000E94EE00C8010197F1F7CE010E94EE00F1
:1007D000C7010197F1F783E191E00E94FF01809149
:1007E0002A0190912B010E9411020E94CA01D3CFCD
:1007F000EEE2F1E01382128288EE93E0A0E0B0E036
:1008000084839583A683B78384E091E0918380837A
:1008100085EC90E09587848784EC90E097878687C5
:1008200080EC90E0918B808B81EC90E0938B828BBD
:1008300082EC90E0958B848B86EC90E0978B868B96
:10084000118E128E138E148E0895A1E21A2EAA1BF9
:10085000BB1BFD010DC0AA1FBB1FEE1FFF1FA21770
:10086000B307E407F50720F0A21BB30BE40BF50B6D
:10087000661F771F881F991F1A9469F760957095F6
:10088000809590959B01AC01BD01CF010895EE0FBD
:10089000FF1F0590F491E02D099481E090E0F89419
:0808A0000C945204F894FFCF00
:1008A800000000005701D4012A0108011C019E0123
:1008B8000D0A0056616C6F7220646520593A200059
:00000001FF
