:100000000C945D000C9485000C9485000C94850084
:100010000C9485000C9485000C9485000C9485004C
:100020000C9485000C9485000C9485000C9485003C
:100030000C9485000C9485000C9485000C9485002C
:100040000C94CA020C9485000C9498020C947202D1
:100050000C9485000C9485000C9485000C9485000C
:100060000C9485000C9485000000000025002800F9
:100070002B0000000008000201000003040700003C
:1000800000000000000000000000240027002A00FB
:10009000010204081020408001020408102001021F
:1000A00004081020040404040404040402020202EC
:1000B0000202030303030303B50411241FBECFEFA1
:1000C000D8E0DEBFCDBF11E0A0E0B1E0E0E6FAE0AD
:1000D00002C005900D92AC31B107D9F721E0ACE137
:1000E000B1E001C01D92AF3CB207E1F710E0CDE5F1
:1000F000D0E004C02197FE010E942305CC35D10732
:10010000C9F70E9414030C942E050C940000CF92A2
:10011000DF92EF92FF920F931F93CF93DF936C01C7
:100120007A018B01C0E0D0E0CE15DF0589F0D8015F
:100130006D918D01D601ED91FC910190F081E02D42
:10014000C6010995892B11F47E0102C02196ECCFDE
:10015000C701DF91CF911F910F91FF90EF90DF903A
:10016000CF900895FC01918D828D981761F0828D5A
:10017000DF01A80FB11D5D968C91928D9F5F9F73DB
:10018000928F90E008958FEF9FEF0895FC01918D7D
:10019000828D981731F0828DE80FF11D858D90E0EA
:1001A00008958FEF9FEF0895FC01918D228D892F87
:1001B00090E0805C9F4F821B91098F73992708956F
:1001C00086E291E00E94D40021E0892B09F420E02E
:1001D000822F0895FC01848DDF01A80FB11DA35A61
:1001E000BF4F2C91848D90E001968F739927848F57
:1001F000A689B7892C93A089B1898C9180648C934E
:10020000938D848D981306C00288F389E02D808138
:100210008F7D80830895EF92FF920F931F93CF936A
:10022000DF93EC0181E0888F9B8D8C8D981305C046
:10023000E889F989808185FD24C0F62E0B8D10E0B8
:100240000F5F1F4F0F731127E02E8C8DE8120CC02B
:100250000FB607FCFACFE889F989808185FFF5CFD1
:10026000CE010E94EA00F1CF8B8DFE01E80FF11D57
:10027000E35AFF4FF0820B8FEA89FB89808180620D
:1002800007C0EE89FF896083E889F98980818064ED
:10029000808381E090E0DF91CF911F910F91FF90DB
:1002A000EF900895CF93DF93EC01888D8823C9F0F8
:1002B000EA89FB89808185FD05C0A889B9898C916F
:1002C00086FD0FC00FB607FCF5CF808185FFF2CF0A
:1002D000A889B9898C9185FFEDCFCE010E94EA00F3
:1002E000E7CFDF91CF91089580E090E0892B29F04E
:1002F0000E94E00081110C940000089590E0FC0140
:10030000EE58FF4F3491FC01E057FF4F2491FC0160
:10031000EC55FF4FE491EE2309F43BC0332339F150
:10032000333091F038F43130A9F0323001F584B532
:100330008F7D12C0373091F03830A1F03430B9F4ED
:10034000809180008F7D03C0809180008F778093A3
:1003500080000DC084B58F7784BD09C08091B00046
:100360008F7703C08091B0008F7D8093B000F0E064
:10037000EE0FFF1FE859FF4FA591B4918FB7F89486
:10038000EC91611103C020952E2301C02E2B2C93DC
:100390008FBF0895CF93DF93D62F26E0880F991F44
:1003A0002A95E1F780617F70C82FC72B60E08AE053
:1003B0000E947E01CEBD00000DB407FEFDCF8EB5BC
:1003C000DEBD00000DB407FEFDCF8EB561E08AE012
:1003D000DF91CF910C947E01CF93DF9390E0FC01ED
:1003E000E057FF4F2491FC01EC55FF4F8491882387
:1003F00061F190E0880F991FFC01EA57FF4FC5910A
:10040000D491FC01E859FF4FA591B491611109C045
:100410009FB7F8948881209582238883EC912E23BE
:100420000BC0623061F49FB7F8943881822F8095B9
:1004300083238883EC912E2B2C939FBF06C08FB70C
:10044000F894E8812E2B28838FBFDF91CF910895F8
:100450008230910538F0880F991F880F991F0597F2
:100460000197F1F708953FB7F89480912101909199
:100470002201A0912301B091240126B5A89B05C0BB
:100480002F3F19F00196A11DB11D3FBFBA2FA92F13
:10049000982F8827820F911DA11DB11DBC01CD0190
:1004A00042E0660F771F881F991F4A95D1F708957C
:1004B000CF93DF9360E086E00E947E0160E087E0FA
:1004C0000E947E01C0E0D0E063E178E0CE010E94AE
:1004D000CA012196C430D105B9F7DF91CF910895B3
:1004E0000E9429051F920F920FB60F9211242F938D
:1004F0003F934F935F936F937F938F939F93AF93AC
:10050000BF93EF93FF9386E291E00E94EA00FF9190
:10051000EF91BF91AF919F918F917F916F915F917B
:100520004F913F912F910F900FBE0F901F901895F4
:100530001F920F920FB60F9211242F938F939F93B8
:10054000EF93FF93E0913601F09137018081E091C4
:100550003C01F0913D0182FD12C0908180913F01EC
:100560008F5F8F7320914001821751F0E0913F011E
:10057000F0E0EA5DFE4F958F80933F0101C08081DE
:10058000FF91EF919F918F912F910F900FBE0F9040
:100590001F9018951F920F920FB60F9211242F9350
:1005A0003F938F939F93AF93BF9380911D01909141
:1005B0001E01A0911F01B091200130911C0123E088
:1005C000230F2D3720F40196A11DB11D05C026E88B
:1005D000230F0296A11DB11D20931C0180931D01C4
:1005E00090931E01A0931F01B093200180912101DF
:1005F00090912201A0912301B09124010196A11DA7
:10060000B11D8093210190932201A0932301B09307
:100610002401BF91AF919F918F913F912F910F90A6
:100620000FBE0F901F901895789484B5826084BD9A
:1006300084B5816084BD85B5826085BD85B58160E6
:1006400085BD80916E00816080936E001092810064
:10065000809181008260809381008091810081601F
:1006600080938100809180008160809380008091E0
:10067000B10084608093B1008091B000816080936C
:10068000B00080917A00846080937A0080917A0033
:10069000826080937A0080917A00816080937A00F2
:1006A00080917A00806880937A001092C10060E0A7
:1006B00087E10E94EC0161E089E00E94EC01E09199
:1006C0003601F091370182E08083E0913201F091B0
:1006D00033011082E0913401F091350180E1808393
:1006E00010923E01E0913A01F0913B0186E0808357
:1006F000E0913801F0913901808180618083E0913F
:100700003801F0913901808188608083E09138015F
:10071000F0913901808180688083E0913801F09107
:10072000390180818F7D808361E08AE00E94EC0145
:1007300061E08AE00E947E01CFB7F89480912501A4
:10074000811127C0EEEAF0E08491EAE9F0E09491AB
:10075000E82FF0E0EE0FFF1FEA57FF4FA591B4918D
:10076000EC91E92321F461E08AE00E947E0161E0DE
:100770008AE00E94EC018CB580618CBD8CB58064F0
:100780008CBD61E08DE00E94EC0161E08BE00E9495
:10079000EC01809125018F5F80932501CFBF61E03F
:1007A00086E00E94EC0161E087E00E94EC0160E0DD
:1007B00086E00E947E0160E087E00E947E010E9448
:1007C00058020E9433024B015C0138EEC32E33E025
:1007D000D32EE12CF12C0E943302DC01CB018819CD
:1007E0009909AA09BB09883E9340A105B10558F0B3
:1007F00021E0C21AD108E108F10888EE880E83E0F2
:10080000981EA11CB11CC114D104E104F10419F714
:1008100048E050E060E171E086E291E00E948700EC
:1008200042E050E069E171E086E291E00E948700D9
:100830000E94580290EC892E90EE992EAA24AA9438
:10084000BA2C23E6422E512C612C712C80ED97E0BE
:10085000A0E0B0E08093C3019093C401A093C501D0
:10086000B093C60188E893E1A0E0B0E08093C701AF
:100870009093C801A093C901B093CA018092CB01A3
:100880009092CC01A092CD01B092CE0161E087E0C0
:100890000E947E0161E086E00E947E0185E1C82E13
:1008A00088EFD82EEE24EA94FE2CC701B601A301EE
:1008B00092010E94E204DA01C9014496A11DB11D12
:1008C0001C012DEE221A27EF320AC3E1D8E0C81B23
:1008D000D90B08EE13E0B10180E090E00E94CA015C
:1008E000B10181E090E00E94CA0188E893E10E9492
:1008F0002802BE0180E090E00E94CA01BE0181E0B2
:1009000090E00E94CA0188E893E10E94280263E116
:1009100078E080E090E00E94CA0163E178E081E045
:1009200090E00E94CA0180EC90EE0E9428020150E3
:10093000110989F69BEEC90E97E0D91EE11CF11C46
:10094000ABE9CA16A6E8DA06E104F10409F0ADCF76
:1009500060E086E00E947E0160E087E00E947E0108
:100960000E9458020E94740171CFE6E2F1E0138206
:10097000128288EE93E0A0E0B0E084839583A683A2
:10098000B78384E091E09183808385EC90E0958744
:10099000848784EC90E09787868780EC90E0918B49
:1009A000808B81EC90E0938B828B82EC90E0958B36
:1009B000848B86EC90E0978B868B118E128E138E33
:1009C000148E0895052E97FB1EF400940E94F904DE
:1009D00057FD07D00E94010507FC03D04EF40C948C
:1009E000F90450954095309521953F4F4F4F5F4FFB
:1009F000089590958095709561957F4F8F4F9F4F8B
:100A00000895A1E21A2EAA1BBB1BFD010DC0AA1F4F
:100A1000BB1FEE1FFF1FA217B307E407F50720F067
:100A2000A21BB30BE40BF50B661F771F881F991FE2
:100A30001A9469F760957095809590959B01AC012B
:100A4000BD01CF010895EE0FFF1F0590F491E02D39
:100A5000099481E090E0F8940C942E05F894FFCF6F
:100A6000000000000B018700D400B200C600520154
:0C0A7000436F6D69656E7A6F000D0A001F
:00000001FF
